:100000000C9423330C9454330C9454330C94543385
:100010000C9454330C9454330C9454330C94543344
:100020000C9454330C9454330C9454330C94543334
:100030000C9454330D94B7630C9454330C94543390
:100040000C9454330C9440EF0C9454330C9454336C
:100050000C9454330C9454330D94DC080D94C45C0C
:100060000C9454330C94A83B0C9454330C94543398
:100070000C9454330C9454330C9454330C945433E4
:100080000C9454330C9454330C9454330C945433D4
:100090000C9454330C9454330C9454330C945433C4
:1000A0000C9454330C9454330C9454330C945433B4
:1000B0000C9454330C9454330C9454330C945433A4
:1000C0000C9454330C9454330C9454330C94543394
:1000D0000C9454330C9454330C9454330C94543384
:1000E0000C945433240116010001D8003E01120182
:1000F0004E0110014A0134012E0138010801580156
:10010000D600F4002C016A01D000DE006801420133
:100110003A010A01060130015A0102015E01F800AC
:10012000FA0046010A016C01E60050013C010C0195
:100130001A01D200440126016E01040164011E016E
:10014000F000DC00FE003201260154011801140108
:10015000084AD73B3BCE016E84BCBFFDC12F3D6C2E
:1001600074319ABD56833DDA3D00C77F11BED9E494
:10017000BB4C3E916BAAAABE000000803F05A84C74
:10018000CDB2D44EB93836A9020C50B99186880840
:100190003CA6AAAA2ABE000000803F000D9490341D
:1001A0000D94055E0D94B45E0D9458280D94DC3BBF
:1001B0000D9461090D9450380D94DD5E0D940A5E26
:1001C0000D948D360D942B530D94DF100D94885E95
:1001D0000D9484330D94C1450D9424120D9441580F
:1001E0000D94D75E0D94DC340D940B3C0D94AE1041
:1001F0000D945B5E0D946A5E0D94D9100D94E15ED2
:100200000D9453090D94475E0D94C95E0D942D5EB7
:100210000D94A03B0D949C5E0D94C15E0D94891BC2
:100220000D94A7090D9489090D94F35E0D94370977
:100230000D94EF5E0D94B05E0D9496360D94D35EE2
:100240000D948F5F0D940D3B0D9429090D94F85E6C
:100250000D9435190D949F360D94253C0D94B509D8
:100260000D94355E0D94E55E0D94AD090D94590D18
:100270000D94863B0D94235E0D94BE5E0D947B0918
:100280000D9467410D94195E0D94BA5E0D94745EE1
:100290000D94632B0D94A9090D94D70E0D94A30909
:1002A0000D94925E0D9484360D94EB5E0D94071FB1
:1002B0000D94BD3B0D943D5E0D94D3100D94515E95
:1002C0000D9449370D9449170D94CF5E0D941D2D53
:1002D0000D940F5E0D942F3C0D947E5E0D94C55EC3
:1002E00048617264636F6465642044656661756C1F
:1002F000742053657474696E6773204C6F61646514
:10030000640046696C616D656E7420736574746910
:100310006E67733A2044697361626C6564002020E3
:10032000204D32303020440046696C616D656E743A
:100330002073657474696E67733A002020204D3213
:1003400030392053004175746F2D526574726163AA
:10035000743A20533D3020746F2064697361626C7D
:10036000652C203120746F20696E7465727072651F
:100370007420657874727564652D6F6E6C79206D6C
:100380006F76657320617320726574726163747334
:10039000206F72207265636F7665726965730020E5
:1003A00046002020204D3230382053005265636FC4
:1003B0007665723A20533D4578747261206C656EA3
:1003C00067746820286D6D2920463A53706565640E
:1003D00020286D6D2F6D2900205A00204600202016
:1003E000204D323037205300526574726163743A85
:1003F00020533D4C656E67746820286D6D2920463A
:100400003A537065656420286D6D2F6D29205A3A26
:10041000205A4C69667420286D6D29002044002004
:1004200049002020204D33303120500050494420D5
:1004300073657474696E67733A00205A002059001E
:1004400020204D323036205800486F6D65206F6691
:100450006673657420286D6D293A00204500205A86
:100460000020590020580020420020540020204D38
:10047000323035205300416476616E6365642076C6
:1004800061726961626C65733A20533D4D696E20FB
:10049000666565647261746520286D6D2F73292C03
:1004A00020543D4D696E2074726176656C206665DE
:1004B00065647261746520286D6D2F73292C20424C
:1004C0003D6D696E696D756D207365676D656E74E0
:1004D0002074696D6520286D73292C20583D6D614D
:1004E00078696D756D205859206A65726B20286D8A
:1004F0006D2F73292C20205A3D6D6178696D756DC3
:10050000205A206A65726B20286D6D2F73292C206C
:1005100020453D6D6178696D756D2045206A657275
:100520006B20286D6D2F73290020540020204D3240
:100530003034205300416363656C65726174696F88
:100540006E3A20533D616363656C65726174696FD7
:100550006E2C20543D726574726163742061636314
:10056000656C65726174696F6E00204500205A00E9
:1005700020590020204D3230312058004D617869DB
:100580006D756D20416363656C65726174696F6E32
:1005900020286D6D2F7332293A00204500205A0023
:1005A00020590020204D3230332058004D617869A9
:1005B0006D756D2066656564726174657320286D64
:1005C0006D2F73293A00204500205A002059002041
:1005D000204D393220580053746570732070657255
:1005E00020756E69743A0022004D32323020532556
:1005F0006900203A2000004C414E472053454C20D2
:10060000464F52434544002200205A3A0020593AAE
:100610000020453A00205A3A0020593A00583A0042
:1006200020002E0020423A0020453A00543A002093
:10063000573A0020453A00543A002042403A002000
:10064000403A00202F003A00205400202F00204282
:100650003A00202F006F6B20543A002569206D6905
:100660006E2C20256920736563004D6573682062D8
:100670006564206C6576656C696E67206E6F7420AA
:100680006163746976652E000A002020000A4D65BA
:1006900061737572656420706F696E74733A000AD5
:1006A0005A20736561726368206865696768743A87
:1006B00020002C004E756D20582C593A2000206DDA
:1006C0006963726F6E7300457863657373697665ED
:1006D00020626564206C6576656C696E6720636F67
:1006E0007272656374696F6E3A2000473238205722
:1006F00030000A00205A3A200020593A20002058A1
:100700003A2000256920686F757273202569206D75
:10071000696E757465730054494D454F55543A00E0
:100720004D313130004D3239002055706C6F6164AD
:1007300020696E2070726F67726573730046616323
:10074000746F7279205245534554004A616E2031CE
:1007500031203230313700436F6D70696C65643A17
:100760002000286E6F6E652C2064656661756C7460
:1007700020636F6E66696729004A616E20313120FF
:10078000323031372032313A33323A3536007374F1
:10079000617274005368697070696E672070726569
:1007A0007000250020202020202000202020202054
:1007B000200045524153494E4720616C6C206461D2
:1007C00074610022206661696C65643A2042756636
:1007D0006665722066756C6C2100456E7175656981
:1007E0006E6720746F207468652066726F6E743A4D
:1007F0002022002200456E717565696E6720746F56
:10080000207468652066726F6E743A202200222080
:100810006661696C65643A20427566666572206639
:10082000756C6C21002200FFFFFF0000A04000005B
:10083000A0400000004000007F43333354439A59E6
:10084000624300000000CDCC0CC09A99193E000014
:100850007F43000052430080624300000000CDCC83
:100860000CC09A99193E6563686F3A004572726FC1
:10087000723A0000002110422063308440A550C627
:1008800060E770088129914AA16BB18CC1ADD1CECE
:10089000E1EFF13112100273325222B5529442F755
:1008A00072D662399318837BB35AA3BDD39CC3FF1E
:1008B000F3DEE36224433420040114E664C774A425
:1008C0004485546AA54BB528850995EEE5CFF5AC6E
:1008D000C58DD55336722611163006D776F6669535
:1008E00056B4465BB77AA719973887DFF7FEE79DBE
:1008F000D7BCC7C448E5588668A778400861180285
:10090000282338CCC9EDD98EE9AFF9488969990A0D
:10091000A92BB9F55AD44AB77A966A711A500A3394
:100920003A122AFDDBDCCBBFFB9EEB799B588B3B5D
:10093000BB1AABA66C877CE44CC55C222C033C60E4
:100940000C411CAEED8FFDECCDCDDD2AAD0BBD68AD
:100950008D499D977EB66ED55EF44E133E322E5174
:100960001E700E9FFFBEEFDDDFFCCF1BBF3AAF59FD
:100970009F788F8891A981CAB1EBA10CD12DC14E6E
:10098000F16FE18010A100C230E320045025404601
:10099000706760B9839893FBA3DAB33DC31CD37F20
:1009A000E35EF3B1029012F322D232354214527751
:1009B000625672EAB5CBA5A89589856EF54FE52CF0
:1009C000D50DC5E234C324A01481046674476424A1
:1009D000540544DBA7FAB79987B8975FE77EF71D00
:1009E000C73CD7D326F2369106B0165766767615F1
:1009F0004634564CD96DC90EF92FE9C899E9898A50
:100A0000B9ABA94458654806782768C018E1088240
:100A100038A3287DCB5CDB3FEB1EFBF98BD89BBB5F
:100A2000AB9ABB754A545A376A167AF10AD01AB390
:100A30002A923A2EFD0FED6CDD4DCDAABD8BADE8AF
:100A40009DC98D267C076C645C454CA23C832CE0E0
:100A50001CC10C1FEF3EFF5DCF7CDF9BAFBABFD93F
:100A60008FF89F176E367E554E745E932EB23ED130
:100A70000EF01E7C3C3E5E2B3D3F2F5B5D3B2C2AE7
:100A8000225C004D383420582059205A2045004D12
:100A90003234004D3233202573006175746F25693F
:100AA0002E67000A002F000A002E0044656C657452
:100AB000696F6E206661696C65642C2046696C659F
:100AC0003A200046696C652064656C657465643A1B
:100AD000002E002E002E002E004E6F7720667265CD
:100AE00073682066696C653A20004E6F7720646FEA
:100AF000696E672066696C653A20002220706F730A
:100B0000002220706172656E743A22005355425281
:100B10004F5554494E452043414C4C2074617267F7
:100B200065743A2200747279696E6720746F20636D
:100B3000616C6C207375622D67636F6465206669F4
:100B40006C6573207769746820746F6F206D616EB7
:100B500079206C6576656C732E204D4158206C654C
:100B600076656C2069733A00333033302048617207
:100B700069626F2045646974696F6E20676F746F76
:100B8000776100333033302048617269626F2045ED
:100B9000646974696F6E206C6973746100333033FB
:100BA000302048617269626F2045646974696F6EB4
:100BB00070726F6E74612E00333033302048617272
:100BC00069626F2045646974696F6E206F6B0033D2
:100BD0003033302048617269626F204564697469FE
:100BE0006F6E2072656164792E007A5F6D696E3A6E
:100BF00020007A5F6D61783A20005A204F66667354
:100C0000657400795F6D696E3A2000795F6D617877
:100C10003A200054616B00536900536900416E6FC4
:100C20000059657300785F6D696E3A2000785F6DDA
:100C300061783A2000205761746368646F672052BE
:100C40006573657400496E666F726D61636A6500F5
:100C50004D6F6E69746F72697A6172005363686573
:100C6000726D61746120696E666F00496E666F72A5
:100C70006D61636500496E666F2073637265656EB2
:100C8000004573706572616E646F206F7264656E8B
:100C9000657300417474656E64656E646F2075746D
:100CA000656E7465005761697420666F7220757394
:100CB00065722E2E2E0057796A61632066696C6119
:100CC0006D656E740053616361722066696C616D5D
:100CD000656E746F00536361726963612066696C4D
:100CE000616D656E746F0056796A6D6F75742066FC
:100CF000696C616D656E7400556E6C6F6164206621
:100D0000696C616D656E7400556E6B6E6F776E20E9
:100D1000636F6D6D616E643A2022004E6173747270
:100D20006F696300416A7573746172005265676F21
:100D30006C61004C616469740054756E65006B6190
:100D40007274612053445B466C73684169725D0044
:100D500053442063617264205B466C73684169721E
:100D60005D006B61727461205344205B6E6F726D25
:100D7000616C5D0053442063617264205B6E6F722E
:100D80006D616C5D0054656D706572617475726142
:100D90000054656D70657261747572610054656DA3
:100DA0007065726174757261005465706C6F746106
:100DB0000054656D706572617475726500506F6D79
:100DC0006F6300506F64706F726100537570706F65
:100DD0007274005A6174727A796D616320647275FD
:100DE0006B00446574656E657220696D7072657321
:100DF000696F6E0041727265737461207374616D06
:100E00007061005A61737461766974207469736BE0
:100E10000053746F70207072696E740050415241BB
:100E200044410041525245535441544F2E005354B3
:100E30004F505045442E20005374657072617465A4
:100E400020746F6F20686967683A2000437A617385
:100E50002063616C6B6F77697479203A005469651F
:100E60006D706F20746F74616C203A0054656D7002
:100E70006F207374616D706120746F743A00436504
:100E80006C6B6F767920636173203A00546F7461E4
:100E90006C207072696E742074696D65203A00462A
:100EA000696C616D656E74206C61637A6E69652032
:100EB0003A0046696C616D656E746F20746F746181
:100EC0006C3A0046696C616D656E746F20746F7466
:100ED0003A0046696C616D656E742063656C6B6584
:100EE0006D203A00546F74616C2066696C616D65A9
:100EF0006E74203A00437A6173206472756B7520BA
:100F00003A2020005469656D706F20646520696D1A
:100F1000702E3A0054656D706F206469207374619F
:100F20006D70613A00436173207469736B75203A88
:100F30002020005072696E742074696D653A20201B
:100F40000046696C616D656E74203A202000466928
:100F50006C616D656E746F203A20200046696C618B
:100F60006D656E746F20757361746F3A0046696CBD
:100F7000616D656E74203A20200046696C616D6574
:100F80006E7420757365643A20200053746174791F
:100F90007374796B612020004573746164697374A4
:100FA00069636120200053746174697374696368B4
:100FB000650053746174697374696B612020005318
:100FC000746174697374696373202000507265647E
:100FD0006B6F73630056656C6F6369646164005680
:100FE000656C6F6369746100527963686C6F7374C8
:100FF0000053706565640020536F66747761726595
:10100000205265736574004D6F64202020202020DD
:10101000205B63696368795D004D6F646F202020F9
:101020005B73696C656E63696F5D004D6F646F2003
:101030005B73696C656E7A696F736F5D004D6F6489
:10104000202020202020205B74696368795D004D9A
:101050006F646520202020205B73696C656E745D71
:10106000004D6F64205B7720777964616A6E6F73DF
:10107000635D004D6F646F205B6D61732066756505
:10108000727A615D004D6F6465205B707265737488
:10109000616E74655D004D6F6420205B7679732E00
:1010A0002076796B6F6E5D004D6F6465205B6869BB
:1010B000676820706F7765725D00506F6B617A2092
:1010C0006B72616E636F776B6900456E73656E61FD
:1010D00020746F70652066696E616C005374617472
:1010E0006F2066696E65636F727361005374617619
:1010F000206B6F6E632E207370696E2E0053686FC5
:101100007720656E642073746F707300557374611B
:101110007769656E696100416A7573746500496D30
:10112000706F7374617A696F6E69004E6173746178
:1011300076656E690053657474696E677300426CFE
:10114000616420706F6C61637A656E6961004572DD
:10115000726F7220646520636F6E6578696F6E00D0
:101160004572726F7265206361626C616767696F57
:10117000004368796261207A61706F6A656E690008
:10118000576972696E67206572726F72004175747B
:101190006F746573742073616C6964610041767665
:1011A0006961206175746F746573740053656C6652
:1011B0002074657374207374617274202000536B03
:1011C0006F6E74726F6C756A203A00436F6E747242
:1011D0006F6C61203A005665726966696361726579
:1011E0003A005A6B6F6E74726F6C756A7465203A50
:1011F00000506C6561736520636865636B203A001D
:101200004175746F74657374204F4B0053656C6641
:101210002074657374204F4B004E696520706F64B5
:101220006C61637A6F6E6F202020004E6F206861C2
:101230007920636F6E6578696F6E2020004E6F6E47
:1012400020636F6E6E6573736F004E657A61706FA9
:101250006A656E6F20202020004E6F7420636F6ED1
:101260006E65637465640053696C6E696B004D6FE5
:10127000746F7265004D6F746F720043616C656EC0
:10128000742E2F5465726D6973746F720052697396
:1012900063616C642E2F5465726D6973742E0048FF
:1012A00065617465722F546865726D6973746F72CD
:1012B000004B72656369207369650056656E7469D9
:1012C0006C61646F722067697261004769726100C6
:1012D000546F6369207365005370696E6E696E6741
:1012E000004E656B72656369207369650056656EB3
:1012F00074696C61646F72206E6F2067697261003F
:101300004E6F6E2073692067697261004E65746F5D
:101310006369207365004E6F74207370696E6E6927
:101320006E6700546573742077656E74796C6174B0
:101330006F726100546573742064656C2076656E0D
:1013400074696C61646F720050726F7661206465BD
:101350006C2076656E74696C61746F72005465738D
:10136000742076656E74696C61746F727500466185
:101370006E20746573740053656C667465737420B5
:101380006E69657564616E79004175746F7465731B
:10139000742066616C6C61646F004175746F746574
:1013A00073742066616C6C69746F0053656C66744D
:1013B0006573742073656C68616C20200053656CE4
:1013C0006674657374206661696C65642020004CE6
:1013D0006577792077656E74206E61206479737A01
:1013E000653F0056656E742E20656E206C61206925
:1013F0007A673F0056656E742053582073756C6C85
:10140000277567656C6C6F3F004C65767920766553
:101410006E74206E61207472797363653F004C6551
:10142000667420686F74656E642066616E3F00416B
:1014300075746F74657374206572726F72210041E8
:1014400075746F74657374206E6567617469766F07
:101450000053656C6674657374206572726F7220D8
:101460002100546F70652066696E2E206E6F2074A7
:101470006F632E0046696E65632E2066756F726914
:1014800020706F722E00456E6473746F70206E6FE3
:10149000742068697400546F7065732066696E61AA
:1014A0006C0046696E65636F727361202832290093
:1014B000456E6473746F707300546F706520666955
:1014C0006E616C0046696E65636F72736100456E94
:1014D0006473746F700050727A6F646E6920776500
:1014E0006E742E206472756B753F0056656E742E97
:1014F00020616C206672656E74653F0056656E747F
:10150000206469207374616D706120616E742E3F78
:1015100000507265646E69207469736B6F76792010
:1015200076656E743F0046726F6E74207072696EDD
:10153000742066616E3F004B6F6E74726F6C612039
:101540005A2061786973202000436F6E74726F6C4B
:101550002064656C20656A65205A0056657269666C
:101560006963612061737365205A004B6F6E7472FA
:101570006F6C61205A206178697320200043686590
:10158000636B696E67205A20617869732020004B75
:101590006F6E74726F6C61205920617869732020BE
:1015A00000436F6E74726F6C2064656C20656A65B1
:1015B00020590056657269666963612061737365BD
:1015C0002059004B6F6E74726F6C612059206178E6
:1015D0006973202000436865636B696E672059203A
:1015E000617869732020004B6F6E74726F6C61209C
:1015F000582061786973202000436F6E74726F6C9D
:101600002064656C20656A652058005665726966BD
:1016100069636120617373652058004B6F6E74724B
:101620006F6C6120582061786973202000436865E1
:10163000636B696E67205820617869732020004BC6
:101640006F6E74726F6C6120686F74656E642020B9
:1016500000436F6E74726F6C20686F74656E6420E7
:10166000005665726966696361207567656C6C6FA9
:10167000004B6F6E74726F6C6120686F74656E647E
:10168000202000436865636B696E6720686F74652E
:101690006E642020004B6F6E74726F6C6120656EFB
:1016A0006473746F707300436F6E742E20746F7068
:1016B00065732066696E616C005665726966696360
:1016C000612066696E65636F727361004B6F6E7443
:1016D000726F6C6120656E6473746F707300436821
:1016E00065636B696E6720656E6473746F707300F9
:1016F0004B6F6E74726F6C612062656420202020D5
:101700002000436F6E74726F6C2064652063616D9E
:1017100061005665726966696361206C6574746FF7
:10172000004B6F6E74726F6C6120626564202020C4
:10173000202000436865636B696E672062656420E2
:10174000202020200057737A7973746B6F204F4BE1
:1017500020202020202000546F646F2062696520C3
:10176000004E657373756E206572726F72650056F8
:101770007365204F4B202020202020202020202077
:1017800000416C6C20636F727265637420202020AE
:1017900020200043616D612F43616C656E7461644C
:1017A0006F72004C6574746F2F52697363616C645F
:1017B0002E00426564202F204865617465720041E7
:1017C00075746F74657374004175746F74657374A8
:1017D0000053656C667465737420202020202020DF
:1017E00020200057726974696E6720746F206669E3
:1017F0006C653A2000766F6C756D652E696E697444
:10180000206661696C6564002053697A653A20003E
:101810004B617274612077796A65746100546172FA
:101820006A65746120726574697261646100534411
:101830002072696D6F737361004B61727461207601
:10184000796A6D75746100436172642072656D6FB1
:10185000766564005344207072696E74696E672007
:101860006279746520006F70656E206661696C65D1
:10187000642C2046696C653A20006F70656E526F6B
:101880006F74206661696C6564004B6172746120DD
:10189000776C6F7A6F6E61005461726A6574612053
:1018A000636F6C6F6361646100534420696E73659C
:1018B00072697461004B6172746120766C6F7A6535
:1018C0006E61004361726420696E73657274656451
:1018D00000534420696E6974206661696C00466932
:1018E0006C652073656C65637465640046696C653E
:1018F000206F70656E65643A20006572726F7220A9
:1019000077726974696E6720746F2066696C650010
:1019100053442063617264206F6B0043616E6E6F8D
:1019200074206F70656E2073756264697200436124
:101930006E6E6F7420656E74657220737562646973
:10194000723A2000577A6E6F7769656E6965206418
:1019500072756B7500526573756D69656E646F2085
:10196000696D7072652E0052697072656E646920CF
:101970007374616D7061004F626E6F76656E692081
:101980007469736B7500526573756D696E6720704D
:1019900072696E74004B6F6E74796E756F776163E8
:1019A000005265616E7564617220696D7072657355
:1019B0002E0052697072656E6469207374616D7077
:1019C0006100506F6B7261636F7661740052657372
:1019D000756D65207072696E7400526573656E6412
:1019E0003A2000686F77746F2E707275736133647C
:1019F0002E637A00686F77746F2E7072757361331F
:101A0000642E637A00686F77746F2E7072757361DD
:101A100033642E636F6D00666F72756D2E70727514
:101A2000736133642E637A00666F72756D2E707207
:101A300075736133642E637A00666F72756D2E70F4
:101A40007275736133642E636F6D007072757361AC
:101A500033642E637A00707275736133642E637A17
:101A600000707275736133642E636F6D004472751C
:101A70006B2070727A657277616E79005374616D54
:101A800070612061626F7274697461005469736B74
:101A900020707265727573656E005072696E742085
:101AA00061626F72746564004E616369736E696A26
:101AB0002070727A796369736B00592070756C734A
:101AC0006520656C206D616E646F00592070756CC7
:101AD000736520656C206D616E646F0041207374C6
:101AE00069736B6E65746520746C616369746B6F88
:101AF00000416E6420707265737320746865206B9A
:101B00006E6F62004E6167727A656A206479737ADB
:101B100065210050726563616C2E20657874727562
:101B2000736F7221005072657269732E207567653C
:101B30006C6C6F210050726564656872656A7465CB
:101B400020747279736B75210050726568656174D9
:101B500020746865206E6F7A7A6C65210047727A0E
:101B6000616E69650050726563616C656E74617267
:101B70000050726572697363616C646100507265D4
:101B800064656872657600507265686561740050BE
:101B90006F77657255700050726F737A6520637A43
:101BA000656B6163004573706572610041737065B8
:101BB0007474610050726F73696D2063656B656A40
:101BC000746500506C6561736520776169740020ED
:101BD00020506C616E6E6572427566666572427900
:101BE0007465733A200050727A657277616320647D
:101BF00072756B0050617573617220696D707265EA
:101C000073696F6E004D6574746920696E20706130
:101C100075736100506F7A617374617669742074B2
:101C200069736B005061757365207072696E740022
:101C30006F6B004F66660053696E206D6F76696D3D
:101C400069656E746F004E657373756E206D6F7687
:101C5000696D656E746F2E004E6F206D6F76652E08
:101C6000004272616B206B61727479205344004EA4
:101C70006F20686179207461726A657461205344D1
:101C8000004E657373756E61205344005A61646E33
:101C900061205344206B61727461004E6F20534485
:101CA0002063617264004479737A61004675736FD2
:101CB00072005567656C6C6F00547279736B6100CC
:101CC0004E6F7A7A6C65004272616B2066696C6156
:101CD0006D656E74750046696C2E206E6F206361B1
:101CE000726761646F0046696C2E206E6F206361BD
:101CF000726761646F0046696C616D656E74206E19
:101D0000657A61766564656E0046696C616D656EC5
:101D100074206E6F74206C6F61646564004B6F6C2F
:101D20006F72207A616E6965637A79737A2E0043E7
:101D30006F6C6F72206E6F20636C61726F00436F07
:101D40006C6F72206E6F20636C61726F0042617203
:101D50007661206E656E6920636973746100436FFC
:101D60006C6F72206E6F7420636C656172004E69D7
:101D700065004E65004E6F0050726F737A65207A71
:101D8000616B7475616C697A6F776163004163742C
:101D900075616C697A617220706F72206661766F0E
:101DA0007200507265676120616767696F726E616A
:101DB0002E0050726F73696D20616B7475616C6970
:101DC0007A756A74652E00506C6561736520757054
:101DD00067726164652E005779737A6C61206E6F4B
:101DE000776120776572736A61206669726D7761C9
:101DF00072653A004E7565766F206669726D77611F
:101E0000726520646973706F6E69626C653A004E2A
:101E1000756F76612076657273696F6E6520646593
:101E20006C206669726D7761726520646973706F8A
:101E30006E6962696C65005679736C61206E6F76AD
:101E400061207665727A65206669726D7761726568
:101E50003A004E6577206669726D7761726520760B
:101E6000657273696F6E20617661696C61626C6521
:101E70003A0050727A6573756E6163205A004D6F37
:101E8000766572205A004D756F7669205A00506F42
:101E900073756E6F7574205A004D6F7665205A0009
:101EA00050727A6573756E61632059004D6F766567
:101EB000722059004D756F7669205900506F737507
:101EC0006E6F75742059004D6F7665205900507201
:101ED0007A6573756E61632058004D6F7665722068
:101EE00058004D756F7669205800506F73756E6F8E
:101EF00075742058004D6F766520580045787472CF
:101F000075736F72004D756F7669204573747275C5
:101F1000736F7265004578747275646572004B6109
:101F20006C69627261636A61205A2E2050727A6510
:101F30006B7265632067616C6B652C206162792030
:101F400070727A6573756E6163206F73205A2064B6
:101F50006F20676F726E796368206B72616E636F5A
:101F600077656B2E204E616369736E696A2C2062FF
:101F70007920706F7477696572647A69632E0043A3
:101F8000616C696272616E646F205A2E20476972BB
:101F90006120656C20626F746F6E207061726120C9
:101FA000737562697220656C20636172726F205A6A
:101FB00020686173746120676F6C7065207069655B
:101FC0007A6173207375706572696F7261732E2008
:101FD000446573707565732068617A20636C69630A
:101FE0002E0043616C696272617A696F6E65205A76
:101FF0002E2052756F74617265206C61206D616E68
:102000006F706F6C612070657220616C7A617265AF
:1020100020696C2063617272656C6C6F205A206657
:10202000696E6F20616C6C27616C74657A7A6120CF
:102030006D617373696D612E20436C69636B2070F1
:102040006572207465726D696E6172652E004B61F8
:102050006C696272616365205A2E204F74616365FA
:102060006E696D20746C616369746B6120706F734D
:10207000756E7465205A206F737520617A206B7EAF
:10208000686F726E696D7520646F72617A752E204B
:10209000506F74767264746520746C616369746BDC
:1020A000656D2E0043616C6962726174696E6720B0
:1020B0005A2E20526F7461746520746865206B6EAF
:1020C0006F6220746F206D6F766520746865205A8A
:1020D00020636172726961676520757020746F207A
:1020E00074686520656E642073746F7070657273B8
:1020F0002E20436C69636B207768656E20646F6E79
:10210000652E004B616C69627261636A6120585987
:102110005A2E2050727A656B7265632067616C6B12
:10212000652C206162792070727A6573756E6163C7
:10213000206F73205A20646F20676F726E79636816
:10214000206B72616E636F77656B2E204E616369E1
:10215000736E696A2C20627920706F74776965727A
:10216000647A69632E0043616C696272616E646FA8
:102170002058595A2E204769726120656C20626F81
:10218000746F6E2070617261207375626972206570
:102190006C20636172726F205A20686173746120D1
:1021A000676F6C7065207069657A617320737570F4
:1021B0006572696F7261732E204465737075657303
:1021C0002068617A20636C69632E0043616C6962E8
:1021D00072617A696F6E652058595A2E2052756F58
:1021E00074617265206C61206D616E6F706F6C61DF
:1021F0002070657220616C7A61726520696C206361
:10220000617272656C6C6F205A2066696E6F206116
:102210006C6C27616C74657A7A61206D6173736987
:102220006D612E20436C69636B207065722074654C
:10223000726D696E6172652E004B616C69627261CC
:1022400063652058595A2E204F746163656E696D1D
:1022500020746C616369746B6120706F73756E7448
:1022600065205A206F737520617A206B7E686F72CB
:102270006E696D7520646F72617A752E20506F746F
:10228000767264746520746C616369746B656D2E1D
:102290000043616C6962726174696E672058595AB3
:1022A0002E20526F7461746520746865206B6E6FA8
:1022B0006220746F206D6F766520746865205A20E7
:1022C000636172726961676520757020746F207434
:1022D000686520656E642073746F70706572732E0C
:1022E00020436C69636B207768656E20646F6E6550
:1022F0002E0052756368206F7369004D6F766572AA
:1023000020656A6573004D756F766920617373652A
:1023100000506F73756E6F7574206F7375004D6F1D
:1023200076652061786973004D657368206C697605
:10233000656C2E206C6574746F004D657368204267
:102340006564204C6576656C696E67004B616C69ED
:10235000627261636A610043616C696272616369A0
:102360006F6E0043616C696272617A696F6E6500BD
:102370004B616C6962726163650043616C69627292
:102380006174696F6E00207A2039002064652039FD
:1023900000207375203900207A203900206F6620D4
:1023A00039004F6B7265736C616D207779736F6B59
:1023B0006F7363206F646E69657369656E69612010
:1023C00070756E6B7475206B616C69627261637994
:1023D0006A6E65676F004D65646972206C6120618B
:1023E0006C747572612064656C2070756E746F20FA
:1023F0006465206C612063616C6962726163696FFE
:102400006E004D69737572617265206C27616C7422
:10241000657A7A61206469207269666572696D65A2
:102420006E746F2064656C2070756E746F206469C3
:102430002063616C696272617A696F6E65004D65D7
:1024400072696D207265666572656E636E6920766D
:1024500079736B75206B616C69627261636E696818
:102460006F20626F6475004D6561737572696E6788
:10247000207265666572656E636520686569676868
:1024800074206F662063616C6962726174696F6E3B
:1024900020706F696E74004D656E7520676C6F7784
:1024A0006E65004D656E75207072696E636970614E
:1024B0006C004D656E75207072696E636970616C39
:1024C0006500486C61766E69206E616269646B615B
:1024D000004D61696E004D32323120496E76616C7B
:1024E000696420657874727564657220004D3231BC
:1024F0003820496E76616C69642065787472756401
:10250000657220004D32303020496E76616C69640E
:1025100020657874727564657220005265706F7200
:1025200074696E6720656E6473746F702073746174
:10253000747573004649524D574152455F4E414DA7
:10254000453A4D61726C696E2056312E302E323B09
:1025500020537072696E7465722F6772626C206DA1
:10256000617368757020666F722067656E362046ED
:1025700049524D574152455F55524C3A68747470F8
:10258000733A2F2F6769746875622E636F6D2F70B1
:102590007275736133642F50727573612D69332DB9
:1025A000506C75732F2050524F544F434F4C5F5611
:1025B000455253494F4E3A312E30204D4143484900
:1025C0004E455F545950453A33303330204861729C
:1025D00069626F2045646974696F6E204558545272
:1025E000554445525F434F554E543A312055554955
:1025F000443A30303030303030302D303030302DC3
:10260000303030302D303030302D303030303030D0
:102610003030303030300A004D31303920496E765C
:10262000616C696420657874727564657220004D10
:1026300031303520496E76616C696420657874723A
:102640007564657220004D31303420496E76616CBE
:1026500069642065787472756465722000577072C1
:102660006F7761647A2066696C616D656E74005085
:102670006F6E65722066696C616D656E746F004384
:1026800061726963612066696C616D656E746F006B
:102690005A61766573742066696C616D656E74004D
:1026A0004C6F61642066696C616D656E7400577073
:1026B000726F772E2066696C616D656E747500436C
:1026C000617267616E646F2066696C2E004361728F
:1026D00067616E646F2066696C2E005A6176616472
:1026E000656E692066696C616D656E7475004C6F0E
:1026F0006164696E672066696C616D656E74004324
:102700007A79737A637A2E206B6F6C6F72750043DF
:10271000617267616E646F20636F6C6F72004361FA
:102720007267616E646F20636F6C6F7200436973D0
:1027300074656E69206261727679004C6F616469BC
:102740006E6720636F6C6F72005779626F72206AD8
:10275000657A796B610043616D626961206C61200B
:102760006C656E677561200053656C657A696F6E84
:1027700061206C696E677561005679626572206AC6
:10278000617A796B610053656C656374206C616E6E
:10279000677561676500506F6C736B690045737096
:1027A000616E6F6C004974616C69616E6F004365A6
:1027B0007374696E6100456E676C6973680050419F
:1027C0005241444120444520454D4552472E004941
:1027D0004E2054494C542E004B494C4C45442E201D
:1027E00000496E76616C6964206578747275646501
:1027F00072005770726F7761647A2066696C616DE0
:10280000656E7400496E73657274612066696C61EF
:102810006D656E746F00496E7365726972652066CE
:10282000696C616D656E746F00566C6F7A746520AB
:1028300066696C616D656E7400496E7365727420B3
:1028400066696C616D656E7400207A2039002064C1
:1028500065203900207375203900207A2039002046
:102860006F66203900506F7072617769616D2070FA
:10287000726563797A796A6E6F73632070756E6BB7
:102880007475206B616C6962726163796A6E6567E9
:102890006F004D656A6F72616E646F2063616D6178
:1028A0002070756E746F2064652063616C6962725C
:1028B0006163696F6E0050657266657A696F6E2E2E
:1028C00020696C206C6574746F2070756E746F2055
:1028D00064692063616C696272617A2E005A6C656A
:1028E0007073756A6920707265736E6F7374206B94
:1028F000616C69627261636E69686F20626F647592
:1029000000496D70726F76696E672062656420633E
:10291000616C6962726174696F6E20706F696E7448
:10292000004B616C696272756A65205A0043616C84
:10293000696272616E646F205A0043616C696272F1
:10294000616E646F205A004B616C696272756A69CE
:10295000205A0043616C6962726174696E67205A23
:10296000004B616C69627261636A61204F4B004386
:10297000616C6962726163696F6E204F4B004361E5
:102980006C696272617A696F6E65204F4B004B61B2
:102990006C696272616365204F4B0043616C6962D0
:1029A000726174696F6E20646F6E65004B616C6953
:1029B0006272756A205A0043616C696272617220AA
:1029C0005A0043616C69627261205A004B616C6904
:1029D00062726F766174205A0043616C6962726141
:1029E0007465205A0047727A616E6965204F4B2EDC
:1029F0000043616C656E74616E646F206C69737402
:102A00006F2E0052697363616C64616D656E746FE3
:102A100020666174746F2E005A6168726976616E07
:102A200069204F4B2E0048656174696E6720646FA2
:102A30006E652E0047727A616E69652E2E2E0043F8
:102A4000616C656E74616E646F2E2E2E0052697318
:102A500063616C64616D656E746F2E2E2E005A6119
:102A600068726976616E690048656174696E6700B5
:102A70002046726565204D656D6F72793A2000447D
:102A800072756B61726B61206E6965207A6F737409
:102A9000616C61206A65737A637A6520736B616C1F
:102AA0006962726F77616E612E2050726F737A6502
:102AB000206B6965726F7761632073696520696E49
:102AC000737472756B636A612C20726F7A647A69B1
:102AD000616C205A61637A796E616D792C20706F18
:102AE00064726F7A647A69616C2053656C66746590
:102AF00073742E00496D707265736F7261206E6F12
:102B000020657374612063616C6962726164612025
:102B1000746F64617669612E20506F7220666176F1
:102B20006F72207573617220656C206D616E7561C6
:102B30006C2C20656C206361706974756C6F204625
:102B4000697273742073746570732C2073656C657F
:102B50006363696F6E2043616C6962726174696F4F
:102B60006E20666C6F772E005374616D70616E74A9
:102B70006520616E636F7261206E6F6E2063616CA1
:102B80006962726174612E20536920707265676199
:102B9000206469207365677569726520696C206DB2
:102BA000616E75616C652C2063617069746F6C6F08
:102BB000205052494D492050415353492C207365B0
:102BC0007A696F6E652064656C6C612063616C6905
:102BD0006272617A696F6E652E005469736B6172FF
:102BE0006E61206E6562796C61206A657374652020
:102BF0007A6B616C6962726F76616E612E20506FC4
:102C000073747570756A74652070726F73696D2066
:102C1000706F646C65206D616E75616C752C206BD6
:102C2000617069746F6C61205A6163696E616D6572
:102C30002C206F6473746176656320506F737475B4
:102C400070206B616C6962726163652E00507269FD
:102C50006E74657220686173206E6F7420626565A2
:102C60006E2063616C696272617465642079657459
:102C70002E20506C6561736520666F6C6C6F7720D9
:102C8000746865206D616E75616C2C20636861707D
:102C90007465722046697273742073746570732C46
:102CA0002073656374696F6E2043616C6962726141
:102CB00074696F6E20666C6F772E0050727A657043
:102CC0006C797700466C756A6F00466C7573736F2C
:102CD00000507275746F6B00466C6F7700207A201D
:102CE0003400206465203400207375203400207A7D
:102CF000203400206F66203400537A756B616D209C
:102D000070756E6B7475206B616C6962726163794A
:102D10006A6E65676F20706F646B6C61646B6900CD
:102D200042757363616E646F2063616D61207075BD
:102D30006E746F2064652063616C6962726163699F
:102D40006F6E00526963657263612064656C206C0C
:102D50006574746F2070756E746F20646920636190
:102D60006C696272617A2E00486C6564616D206BDB
:102D7000616C69627261636E6920626F6420706F5A
:102D8000646C6F7A6B7900536561726368696E6712
:102D9000206265642063616C6962726174696F6E40
:102DA00020706F696E7400446F6E65207361766980
:102DB0006E672066696C652E00446F6E65207072C8
:102DC000696E74696E672066696C650057796D6914
:102DD000656E69632066696C616D656E7400436140
:102DE0006D626961722066696C616D656E746F00F9
:102DF00043616D622E2066696C616D656E746F0053
:102E000056796D656E69742066696C616D656E7466
:102E1000004368616E67652066696C616D656E74FC
:102E200000507265646B6F73632077656E742E005B
:102E300056656E74696C61646F720056656C6F6381
:102E40006974612076656E746F6C61005279636895
:102E50006C6F73742076656E742E0046616E2073FD
:102E60007065656400656E717565696E6720220026
:102E70002045787465726E616C20526573657400CC
:102E80005072696E7465722073746F70706564201F
:102E900064756520746F206572726F72732E2046A0
:102EA000697820746865206572726F7220616E6443
:102EB00020757365204D39393920746F2072657320
:102EC000746172742E202854656D7065726174751A
:102ED00072652069732072657365742E2053657462
:102EE0002069742061667465722072657374617202
:102EF00074696E6729004E6F204C696E65204E75AF
:102F00006D626572207769746820636865636B73AE
:102F1000756D2C204C617374204C696E653A2000ED
:102F20004E6F20436865636B73756D2077697468B5
:102F3000206C696E65206E756D6265722C204C6127
:102F40007374204C696E653A200020746F6F206C9A
:102F50006F6E6720657874727573696F6E2070721A
:102F60006576656E746564004C696E65204E756D9E
:102F7000626572206973206E6F74204C61737420D7
:102F80004C696E65204E756D6265722B312C204C3C
:102F9000617374204C696E653A20005072696E74DA
:102FA00065722068616C7465642E206B696C6C2896
:102FB000292063616C6C6564210020636F6C642060
:102FC000657874727573696F6E2070726576656E60
:102FD00074656400636865636B73756D206D6973F8
:102FE0006D617463682C204C617374204C696E654C
:102FF0003A2000424C41443A0043485942413A0089
:103000004552524F523A00456E642066696C652005
:103010006C697374006F70656E0054524947474580
:1030200052454400656E6473746F707320686974F0
:103030003A20005265706F736F2E2E2E00536F73FF
:1030400070656E73696F6E652E2E2E00536C65650C
:10305000702E2E2E0057796C61637A796320736924
:103060006C6E696B6900417061676172206D6F748D
:103070006F726573004469736162696C6974206D75
:103080006F746F7269005679706E6F7574206D6F12
:10309000746F72790044697361626C652073746542
:1030A00070706572730020436F756E7420583A20FB
:1030B0000057796D69616E61206F6B3F0043616DF0
:1030C000626961646F20636F727265632E3F0043B3
:1030D000616D626961746F20636F72722E3F00567A
:1030E000796D656E61206F6B3F004368616E676547
:1030F0006420636F72726563746C793F0057796303
:10310000686C6F647A696300456E6672696172000B
:10311000526166667265646461005A63686C6164DA
:10312000697400436F6F6C646F776E00446C61204C
:103130007072617769646C2E206B616C6962726178
:10314000636A692070726F737A65206F637A79732E
:10315000636963206479737A652E20506F74772ECB
:103160002067757A696B69656D2E004C696D7069B1
:10317000617220626F7175696C6C6120706172613F
:103180002063616C6962726163696F6E2E20436CAB
:1031900069636B206375616E646F20616361626552
:1031A000732E0050756C697265206C277567656CAD
:1031B0006C6F20706572206C612063616C69627253
:1031C000617A696F6E652C20706F69206661726527
:1031D00020636C69636B2E0050726F20757370658D
:1031E000736E6F75206B616C696272616369206FC9
:1031F000636973746574652070726F73696D207490
:1032000069736B6F766F7520747279736B752E208E
:10321000506F74767264746520746C616369746B4A
:10322000656D2E00506C6561736520636C65616E21
:1032300020746865206E6F7A7A6C6520666F7220E4
:1032400063616C6962726174696F6E2E20436C6990
:10325000636B207768656E20646F6E652E004F6229
:103260006120776F7A6B6920646F6A656368616C4F
:103270007920646F20676F726E656A2072616D7964
:103280003F00436172726F73205A20697A712E2F4A
:103290006465722E20657374616E2061727269625A
:1032A00061206D6178696D6F3F00492063617272C2
:1032B000656C6C69205A2073696E2F646573207386
:1032C0006F6E6F20616C74657A7A61206D61783FF2
:1032D00000446F6A656C79206F6261205A20766FB6
:1032E0007A696B79206B7E686F726E696D75206488
:1032F0006F72617A753F00417265206C656674205B
:10330000616E64207269676874205A7E63617272AC
:10331000696167657320616C6C2075703F00204C9B
:1033200061737420557064617465643A2000577944
:103330006D69616E61206F6B210043616D6269612F
:1033400072206269656E210043616D6269612E20A1
:10335000726975736369746F21005A6D656E6120BF
:1033600075737065736E6121004368616E676520D7
:103370007375636365737321004472756B207A20E3
:103380005344004D656E75206465205344005374AA
:10339000616D7061206461205344005469736B2037
:1033A0007A205344005072696E742066726F6D20EB
:1033B0005344005265736574206B616C6962722EB0
:1033C0002058595A0052657365742058595A206B19
:1033D000616C6962722E0052657365742058595A87
:1033E0002063616C6962722E004B616C696272616C
:1033F000636A612058595A0043616C6962726120A6
:1034000058595A0043616C696272612058595A00D8
:103410004B616C6962726163652058595A0043615F
:103420006C6962726174652058595A002042726F4B
:10343000776E206F757420526573657400426567FE
:10344000696E2066696C65206C697374004B616CF1
:1034500069627261636A612058595A206E696564B5
:103460006F6B6C61646E612E204C65777920707291
:103470007A65646E692070756E6B74207A627974F7
:1034800020777973756E6965747920646F20707226
:103490007A6F64752E0043616C696272617A696F3C
:1034A0006E2058595A20636F6D70726F6D65746924
:1034B00064612E2050756E746F2064656C616E744B
:1034C00065726F20697A7175696572646F206E6FBD
:1034D00020616C63616E7A61626C652E0043616C81
:1034E000696272617A696F6E652058595A20636FFC
:1034F0006D70726F6D657373612E2050756E746F91
:1035000020616E746572696F72652073696E69738C
:1035100074726F206E6F6E207261676769756E6777
:103520006962696C652E004B616C696272616365EA
:103530002058595A206E65707265736E612E204C4A
:1035400065767920707265646E6920626F64206DA3
:103550006F63207670726564752E0058595A206327
:10356000616C6962726174696F6E20636F6D7072F5
:103570006F6D697365642E204C6566742066726F8A
:103580006E742063616C6962726174696F6E207021
:103590006F696E74206E6F7420726561636861621A
:1035A0006C652E004B616C6962722E2058595A204E
:1035B0006E6965646F6B6C61646E612E2050727A07
:1035C00065646E69652070756E6B7479206B616CD3
:1035D0006962722E205A627974207779732E206482
:1035E0006F2070727A6F64752E0043616C6962722D
:1035F000617A696F6E2058595A20636F6D70726FCF
:103600006D65746964612E2050756E746F206465F9
:103610006C616E7465726F73206E6F20616C636194
:103620006E7A61626C65732E0043616C69627261CF
:103630007A696F6E652058595A20636F6D70726F8A
:103640006D657373612E2050756E746920616E74A0
:103650006572696F7269206E6F6E2072616767694B
:10366000756E676962696C692E004B616C69627284
:103670006163652058595A206E65707265736E617A
:103680002E20507265646E69206B616C6962726194
:10369000636E6920626F6479206D6F63207670724B
:1036A0006564752E0058595A2063616C69627261B5
:1036B00074696F6E20636F6D70726F6D697365648E
:1036C0002E2046726F6E742063616C696272617441
:1036D000696F6E20706F696E7473206E6F742072E4
:1036E0006561636861626C652E004B616C69627232
:1036F00061636A612058595A207720706F727A612D
:10370000646B752E204F73696520582F59206C65A6
:103710006B6B6F20736B6F736E652E0043616C690A
:1037200062726163696F6E2058595A20636F6E73BD
:103730006567756964612E20456A657320582F5945
:1037400020756E20706F636F20746F726369646F91
:10375000732E0043616C696272617A696F6E6520D5
:1037600058595A20636F6D70697574612E20476CCB
:1037700069206173736920582F5920736F6E6F2011
:103780006C65676765726D656E74652064697374D6
:103790006F7274692E004B616C696272616365209F
:1037A00058595A207620706F7261646B752E2058BC
:1037B0002F59206F7379206D69726E65207A6B6F57
:1037C00073656E652E0058595A2063616C69627288
:1037D0006174696F6E20616C6C2072696768742E09
:1037E00020582F5920617865732061726520736CB1
:1037F000696768746C7920736B657765642E004F18
:1038000073696520582F59207361206D6F636E6F47
:1038100020736B6F736E652E20536B6F7320626520
:10382000647A6965206175742E207779726F776E7E
:10383000616E792070727A79206472756B752E00D2
:10384000582F59206D757920646973746F7273698C
:103850006F6E61646F2E204C6120646973746F72A7
:1038600073696F6E207365726120636F7272656732
:10387000696461206175746F6D61746963616D6500
:103880006E74652E00582F5920666F7274656D65D1
:103890006E746520646973746F72746F2E204C614E
:1038A00020646973746F7273696F6E6520766572D8
:1038B00072612720636F7272657474612061757420
:1038C0006F6D61746963616D656E74652E00582F4C
:1038D00059206F7379206A736F752073696C6E65F8
:1038E000207A6B6F73656E652E205A6B6F73656EF1
:1038F000692062756465206175746F6D61746963B8
:103900006B79207679726F766E616E6F2070726956
:10391000207469736B752E00582F5920736B65776F
:1039200065642073657665726C792E20536B6577BC
:103930002077696C6C20626520636F7272656374B6
:103940006564206175746F6D61746963616C6C7915
:103950002E004B616C6962722E2058595A206E6994
:10396000657564616E612E204B616C696272616382
:10397000796A6E792070756E6B7420706F646B6CF1
:1039800061646B69206E69657A6E616C657A696FD6
:103990006E792E0043616C6962726163696F6E209B
:1039A00058595A2066616C6C6164612E2050756EA6
:1039B000746F732064652063616C6962726163690E
:1039C0006F6E20656E206C612063616D61206E6F8B
:1039D00020656E636F6E747261646F732E00436155
:1039E0006C696272617A696F6E652058595A2066F7
:1039F000616C6C6974612E20496C2070756E746FF7
:103A00002064692063616C696272617A696F6E65B6
:103A10002073756C206C6574746F206E6F6E2065FA
:103A20002720737461746F2074726F7661746F2EC7
:103A3000004B616C6962726163652058595A20734A
:103A4000656C68616C612E204B616C6962726163A8
:103A50006E6920626F6420706F646C6F7A6B79207E
:103A60006E656E616C657A656E2E0058595A2063DA
:103A7000616C6962726174696F6E206661696C6500
:103A8000642E204265642063616C696272617469AE
:103A90006F6E20706F696E7420776173206E6F7423
:103AA00020666F756E642E004B616C696272616393
:103AB0006A612058595A206F6B2E204F7369652018
:103AC000582F592073612070726F73746F70616426
:103AD0006C652E2047726174756C61636A652100A4
:103AE00043616C6962726163696F6E2058595A2034
:103AF0006F6B2E20456A657320582F5920706572B0
:103B000070656E646963756C617265732E204665BD
:103B10006C696369746163696F6E657321004361E9
:103B20006C696272617A696F6E652058595A204FCC
:103B30004B2E20476C69206173736920582F5920E0
:103B4000736F6E6F2070657270656E6469636F6C01
:103B50006172692E20436F6D706C696D656E74695A
:103B600021004B616C6962726163652058595A206B
:103B70007620706F7261646B752E20582F59206FFC
:103B80007379206A736F75206B6F6C6D652E20479B
:103B9000726174756C756A69210058595A206361A5
:103BA0006C6962726174696F6E206F6B2E20582F82
:103BB0005920617865732061726520706572706547
:103BC0006E646963756C61722E20436F6E677261FB
:103BD00074756C6174696F6E7321004B616C6962FE
:103BE0007261636A612058595A206E6965706F77F7
:103BF0006965647A696F6E612E20537072617764B3
:103C00007A6963207720696E737472756B636A6971
:103C10002E0043616C6962726163696F6E2058594E
:103C20005A2066616C6C6164612E20436F6E7375FF
:103C30006C74617220656C206D616E75616C2070B2
:103C40006F72206661766F722E0043616C696272DA
:103C5000617A696F6E652058595A2066616C6C698B
:103C600074612E2053692070726567612064692039
:103C7000636F6E73756C7461726520696C206D6121
:103C80006E75616C652E004B616C69627261636573
:103C90002058595A2073656C68616C612E204E6102
:103CA000686C65646E65746520646F206D616E7507
:103CB000616C752E0058595A2063616C696272619B
:103CC00074696F6E206661696C65642E20506C6546
:103CD00061736520636F6E73756C74207468652002
:103CE0006D616E75616C2E004B616C6962722E2085
:103CF00058595A206E69657564616E612E204C6555
:103D000077792070727A65646E692070756E6B7455
:103D1000207A62797420646F2070727A6F64752ED5
:103D2000205779726F776E6163206472756B617270
:103D30006B652E0043616C6962726163696F6E200E
:103D400058595A2066616C6C61642E2050756E74EF
:103D50006F2064656C616E7465726F20697A71752D
:103D6000696572646F206E6F20616C63616E7A6149
:103D7000626C652E0043616C696272617A696F6E74
:103D8000652058595A2066616C6C6974612E205008
:103D9000756E746F20616E746572696F72652073E1
:103DA000696E697374726F206E6F6E2072616767DF
:103DB00069756E676962696C652E004B616C69623A
:103DC000726163652058595A2073656C68616C6133
:103DD0002E204C65767920707265646E6920626F62
:103DE00064206D6F63207670726564752E20537247
:103DF0006F766E656A7465207469736B61726E7537
:103E00002E0058595A2063616C6962726174696F3F
:103E10006E206661696C65642E204C656674206650
:103E2000726F6E742063616C6962726174696F6E27
:103E300020706F696E74206E6F74207265616368A4
:103E400061626C652E004B616C6962722E2058595C
:103E50005A206E69657564616E612E2050727A65B4
:103E6000642E2070756E6B7479206B616C69627260
:103E70002E207A62797420646F2070727A6F647574
:103E80002E205779726F776E6163206472756B6153
:103E9000726B652E0043616C6962726163696F6E5B
:103EA0002058595A2066616C6C61642E2050756EE2
:103EB000746F2064656C616E7465726F73206E6FD1
:103EC00020616C63616E7A61626C65732E00436180
:103ED0006C696272617A696F6E652058595A206602
:103EE000616C6C6974612E2050756E746920616E0E
:103EF000746572696F7269206E6F6E207261676798
:103F000069756E676962696C692E004B616C6962E4
:103F1000726163652058595A2073656C68616C61E1
:103F20002E20507265646E69206B616C69627261EB
:103F3000636E6920626F6479206D6F6320767072A2
:103F40006564752E2053726F766E656A7465207491
:103F500069736B61726E752E0058595A2063616CDB
:103F60006962726174696F6E206661696C65642E46
:103F70002046726F6E742063616C6962726174694D
:103F80006F6E20706F696E7473206E6F742072652F
:103F900061636861626C652E004B616C696272617D
:103FA000636A61206E69657564616E612E20536578
:103FB0006E736F72206F646C61637A6F6E79206CC0
:103FC00075622075737A6B6F647A2E206B616265FF
:103FD0006C2E20437A656B616D206E612072657373
:103FE00065742E004E6976656C6163696F6E20663C
:103FF000616C6C6164612E2053656E736F72206416
:104000006573636F6E65637461646F206F206361B5
:10401000626C65732064616E61646F732E204573FA
:10402000706572616E646F2072657365742E004CEA
:104030006976656C6C616D656E746F206C65747407
:104040006F2066616C6C69746F2E2053656E736FA0
:10405000726520646973636F6E2E206F20436176F2
:104060006F2044616E6E2E20496E206174746573FA
:10407000612064692072657365742E004B616C6900
:104080006272616365205A2073656C68616C612E91
:104090002053656E736F72206A65206F64706F6A5B
:1040A000656E79206E65626F2070726572757365DA
:1040B0006E79206B6162656C2E2043656B616D20AB
:1040C0006E612072657365742E00426564206C65B4
:1040D00076656C696E67206661696C65642E205335
:1040E000656E736F7220646973636F6E6E6563745F
:1040F0006564206F72206361626C652062726F6B11
:10410000656E2E2057616974696E6720666F722034
:1041100072657365742E004B616C69627261636ACB
:1041200061206E69657564616E612E2053656E73E2
:104130006F72206E696520646F746B6E616C2E20E7
:104140005A616E6965637A79737A2E206479737A1D
:10415000613F20437A656B616D206E6120726573EB
:1041600065742E004E6976656C6163696F6E2066BA
:10417000616C6C6164612E2053656E736F72206E8A
:104180006F2066756E63696F6E612E204573636F75
:104190006D62726F7320656E20426F7175692E3F7C
:1041A000204573706572616E646F2072657365740B
:1041B0002E004C6976656C6C616D656E746F206C59
:1041C0006574746F2066616C6C69746F2E4E6F52EB
:1041D00069737053656E736F72205265736964758D
:1041E00069207375207567656C6C6F3F20496E2080
:1041F0006174746573612064692072657365742EDF
:10420000004B616C696272616365205A2073656C52
:1042100068616C612E2053656E736F72206E6573DA
:1042200065706E756C2E205A6E6563697374656E69
:104230006120747279736B613F2043656B616D20FF
:104240006E612072657365742E00426564206C6532
:1042500076656C696E67206661696C65642E2053B3
:10426000656E736F72206469646E7420747269671E
:104270006765722E20446562726973206F6E206ECE
:104280006F7A7A6C653F2057616974696E67206642
:104290006F722072657365742E004B616C69627277
:1042A00061636A61205A206E69657564616E612E72
:1042B0002053656E736F7220646F746B2E207A6169
:1042C000207779736F6B6F2E20437A656B616D2059
:1042D0006E612072657365742E004E6976656C613F
:1042E00063696F6E2066616C6C6164612E2053653A
:1042F0006E736F722066756E63696F6E61206465A0
:104300006D61736961646F2074656D7072616E6F49
:104310002E204573706572616E646F2072657365DF
:10432000742E004C6976656C6C616D656E746F20DF
:104330006C6574746F2066616C6C69746F2E526961
:1043400073702073656E736F72652074726F707016
:104350006F2070726573746F496E20617474657339
:10436000612064692072657365742E004B616C690D
:104370006272616365205A2073656C68616C612E9E
:104380002053656E736F72207365706E756C20704C
:1043900072696C6973207679736F6B6F2E20436539
:1043A0006B616D206E612072657365742E004265CD
:1043B00064206C6576656C696E67206661696C6502
:1043C000642E2053656E736F72207472696767651F
:1043D00072656420746F6F20686967682E2057616A
:1043E0006974696E6720666F722072657365742EDA
:1043F0000047727A616E69652073746F6C696B61D6
:104400002E2E00426173652043616C656E74616E8F
:10441000646F0050696174746F2072697363616CBA
:1044200064616D2E005A6168726976616E692062FE
:104430006564004265642048656174696E67005375
:10444000746F6C696B204F4B2E0042617365206C5A
:104450006973746F2E0050696174746F20666174A3
:10446000746F2E00426564204F4B2E00426564201D
:10447000646F6E65005720707261776F205B756D99
:104480005D00446572656368612020205B756D5D29
:10449000004C61746F2064657374726F20756D00D9
:1044A00056707261766F205B756D5D00526967684A
:1044B00074207369646520756D00526573657400BE
:1044C000446F2074796C7520205B756D5D004174BC
:1044D00072617320202020205B756D5D004C61743B
:1044E0006F20706F73746572696F726500567A61C0
:1044F000647520205B756D5D005265617220736983
:1045000064652020756D004B6F72656B746120705F
:104510006F646B6C61646B6900436F72722E206410
:1045200065206C612063616D6100436F7272657A12
:104530002E206C69762E6C6574746F004B6F7265FB
:104540006B636520706F646C6F7A6B790042656491
:10455000206C6576656C20636F72726563740057BA
:10456000206C65776F20205B756D5D00497A7175F1
:104570006965726461205B756D5D004C61746F20CC
:1045800073696E697374726F20756D00566C657611
:104590006F20205B756D5D004C65667420736964E7
:1045A000652020756D00446F2070727A6F647520ED
:1045B0005B756D5D004164656C616E746520205BA8
:1045C000756D5D004C61746F2061746572696F7206
:1045D0006520756D00567072656475205B756D5D44
:1045E0000046726F6E74207369646520756D0053A8
:1045F000746F6C696B0042617365004C6574746F15
:1046000000426564004F646C65676C6F736320647F
:1046100079737A79206F6420706F646B6C61646B5E
:1046200069206E6965206A65737420736B616C69BB
:1046300062726F77616E612E20506F737465707552
:104640006A207A676F646E6965207A20696E737478
:1046500072756B636A6120726F7A647A69616C202B
:104660005A61637A796E616D792C20706F64726F14
:104670007A647A69616C204B616C69627261636A09
:1046800061207069657277737A656A2077617273E9
:104690007477792E0044697374616E636961206573
:1046A0006E747265206C612070756E746120646533
:1046B000206C6120626F7175696C6C612079206C6F
:1046C0006120737570657266696369652064652031
:1046D0006C612063616D61206E6F2066696A616440
:1046E000612061756E2E20506F72206661766F7248
:1046F000207369676120656C206D616E75616C2C3B
:10470000206361706974756C6F20466972737420E0
:1047100073746570732C2073656363696F6E2046D4
:1047200069727374206C617965722063616C69626F
:10473000726174696F6E2E0044697374616E7A6180
:1047400020747261206C612070756E7461206465E4
:104750006C6C277567656C6C6F2065206C612073CD
:104760007570657266696369652064656C206C6547
:1047700074746F206E6F6E20616E636F726120695A
:104780006D706F7374612E2053692070726567615C
:10479000206469207365677569726520696C206D96
:1047A000616E75616C652C2063617069746F6C6FEC
:1047B0002046697273742073746570732C2073655E
:1047C0007A696F6E65204669727374206C617965D1
:1047D000722063616C6962726174696F6E2E004E43
:1047E000656E69207A6B616C6962726F76616E6169
:1047F00020767A64616C656E6F737420747279735D
:104800006B79206F64207469736B6F766520706FAD
:10481000646C6F7A6B792E20506F73747570756A43
:1048200074652070726F73696D20706F646C6520A1
:104830006D616E75616C752C206B617069746F6C45
:1048400061205A6163696E616D652C206F647374B9
:1048500061766563204E6173746176656E69207060
:1048600072766E69207672737476792E004469735D
:1048700074616E6365206265747765656E20746926
:1048800070206F6620746865206E6F7A7A6C652080
:10489000616E642074686520626564207375726659
:1048A00061636520686173206E6F74206265656E58
:1048B00020736574207965742E20506C6561736572
:1048C00020666F6C6C6F7720746865206D616E7503
:1048D000616C2C2063686170746572204669727324
:1048E000742073746570732C2073656374696F6EC4
:1048F000204669727374206C617965722063616C03
:104900006962726174696F6E2E00446F7374726FA6
:104910006A656E6965206F7379205A004D6963720C
:104920006F7061736F205A00436F6D70656E7361B5
:104930007A696F6E65205A00446F6C6164656E69B8
:10494000206F7379205A004C6976652061646A751E
:104950007374205A0041646A757374696E67205AD3
:10496000004C6C6576617220616C206F72696765BE
:104970006E0054726F7661206F726967696E6500B0
:104980004175746F20686F6D6500207C20417574DF
:10499000686F723A200041637469766520457874C7
:1049A00072756465723A2000CF0BB80B9D0B830BB8
:1049B000680BEA0BF20BFA0B030C0B0C210C1D0C11
:1049C0001A0C170C130C250C2D0C350C750C6B0CDC
:1049D0005C0C500C450CA50CA50C930C810CA50C83
:1049E000F80CE70CD50CC50CB60C080D390D330DC1
:1049F0002C0D240D1B0D500D500D500D500D3E0D66
:104A0000740D740D740D740D620DB10DA90D9D0D15
:104A1000910D850DCB0DC30DCB0DCB0DBD0D110E25
:104A2000030EF40DE20DD30D2E0E2E0E230E1C0ED2
:104A30002E0E380E8C0E7E0E6C0E5D0E4C0EE40E9D
:104A4000D20EC30EB20E9F0E330F250F140F040F9C
:104A5000F50E7A0F6D0F5C0F4E0F410FBF0FB20FA7
:104A6000A60F980F8B0FF10FE80FDF0FD50FCC0FAC
:104A7000F70F4F103D102B1019100710A8109610AB
:104A8000851073106110FD10EC10DC10CA10BA1004
:104A900035112B111E1117110C118011711160119C
:104AA0004E113E11AC11AC119D118D11AC11F111D3
:104AB000E211D611CB11BE110C120C1200120C1205
:104AC0000C1259124A123D122B121912751275123C
:104AD0006E12751267129F129F128D127B129F1217
:104AE000D812D012CB12BB12B11216130C13001332
:104AF000ED12E1126E135D13481334132313BD132B
:104B0000AB139A13891377131E140914F413E313C8
:104B1000CF13511451143F142F14511486148614BA
:104B2000741462148614B014B014A2149614B01441
:104B3000CE14CE14C414B914CE1426151115FC14B9
:104B4000EB14D6147D156B155B1549153715D51566
:104B5000C315B315A1158F152D161B160B16F915B8
:104B6000E71583167116611651163F16DE16CC1620
:104B7000B916A71695163317211712170217F01634
:104B800081176F17611757174517B217B217A31779
:104B90009317B217D117D117C817BF17D117E3173B
:104BA000F5170818471839182E181D18101854181A
:104BB00066187A18C318B518A91898188A18D11841
:104BC000DE18EC18FA1810191B192E198619771906
:104BD000671955194419CD19C219B219A119951996
:104BE000DA19051AF419051A051AE319391A281AD7
:104BF000391A391A171A611A561A611A611A4B1A98
:104C00009A1A8C1A7C1A9A1A6D1AF11ADC1ACB1A93
:104C1000BA1AA81A491B351B251B131B041B871B1B
:104C20007D1B711B651B5D1B8F1BC31BB41BAC1B4A
:104C3000A51B971BCF1B241C141C051CF41BE61B77
:104C4000301C331C581C581C461C371C581C9B1C01
:104C50008C1C811C6F1C611CC01CB91CB21CAC1CC0
:104C6000A61C091DF61CE61CD61CC71C5E1D4D1D8E
:104C70003E1D2F1D1D1D751D721D751D751D6E1D83
:104C8000C71DB21DA21D8D1D781D521E371E0F1E81
:104C9000F41DD71D991E8E1E861E7E1E721EC71EF7
:104CA000BC1EB41EAC1EA01EF51EEA1EE21EDA1EBD
:104CB000CE1E151F151F051FFC1E151FA4204E20FC
:104CC000E21F7F1F1E1F91223922CB216621032163
:104CD0001E2311230623FB22F2223A233A23282300
:104CE0003A233A237A237023632357234C239C23AC
:104CF000972391238B23862367243E240224D623E3
:104D0000A223D124C224B224A3249724D624ED24A0
:104D100004251B25342518262F264626A026902656
:104D20007F266F265D26EE26DB26CD26BF26AE2605
:104D30003B272D271E270F27FF2686277927682741
:104D400056274927B627AE27A5279D279627D82778
:104D5000D827CF27BE27D827E12739282928162882
:104D60000428F2275F285A2854284E284928012968
:104D7000DD28B62892286528532947293A292D2964
:104D800021299B298E297E296F296129D929CC299E
:104D9000C229B729AC29262A182A032AF129E5298C
:104DA000682A5E2A4D2A3F2A342A702A4D2CDA2B93
:104DB000682BF42A7F2AD82CD12CCA2CC42CBB2CCB
:104DC000F32CEE2CE82CE22CDD2C872D682D432DC6
:104DD000202DF92CA72DB92D112E002EF02DDE2D12
:104DE000CC2D5B2E4C2E3B2E302E212E652E702E80
:104DF000802EF62E202F4A2F682F9B2FBA2FD42FCC
:104E00000030F92F00300030F32F073015301A3002
:104E100024304C304C303D3033304C30953086307F
:104E2000753066305530A630EA30DF30CF30BD30D7
:104E3000B13023311A3110310831FD302432D831EC
:104E4000A3316B312C31F732D132AA3282325E3249
:104E50001E3369335A3348333A332E33A5339B33E9
:104E60008E3383337933D733C533D733D733B33323
:104E70001E3410340434F833E9332C343D345B35BC
:104E80002735DD3496344D34A5366A362936EA3571
:104E9000A435C637963753371C37EA361839CE381B
:104EA00085384038FF376B3A313ADE399439523918
:104EB0009A3B623B1E3BE03AA83AB53C873C4A3CF1
:104EC000123CDB3B023EBB3D753D343DE83C593F67
:104ED0000B3FCE3E953E463ECA407C402F40E43FCD
:104EE000993F4A420142B24164411741AE436C438B
:104EF0002343DA429A423344254413440344F143A2
:104F00006C44644456444A443F44AC44A0449144F5
:104F100082447544BA44F944ED44DD44CE44C0446F
:104F20004D453C452A451945074598458C457B45E7
:104F30006C455F45E145D545C445B545A6450146A7
:104F40000146FB45F645EF456D48DF473847954636
:104F500005464749384928491C490A495549804965
:104F600080497249614980498A4996494578726504
:104F70006D65207370616E206F6620746865205ABD
:104F80002076616C7565732100626F74746F6D00BB
:104F9000746F700000506F696E742068656967688F
:104FA0007420746F6F20736D616C6C3A20007269AD
:104FB000676874006C6566740000506F696E7420D9
:104FC000776964746820746F6F20736D616C6C3ADC
:104FD0002000002C20003A200046696E616C20639E
:104FE000616C63756C617465642062656420706FC8
:104FF000696E74200043616C63756C6174696F6ED7
:10500000206F6620746865206D616368696E652035
:10501000736B657720616E64206F666673657420BC
:105020006661696C65642E00002C20003A20004601
:10503000696E616C206D656173757265642062656F
:105040006420706F696E74200000206661696C6571
:10505000642E204C6F776572696E67207A20746FBA
:1050600020002C20697465726174696F6E2000499C
:105070006D70726F76696E672062656420706F690B
:105080006E742000002C207A002C206974657261F7
:1050900074696F6E2000496D70726F76696E67205B
:1050A00062656420706F696E742000417420592D10
:1050B0003400417420593000002C20002C200020A6
:1050C000004D656173757265642000002C200041FD
:1050D000646A757374656420706F736974696F6E48
:1050E0003A2000002C20683A002C20646D61783A48
:1050F000005061727469616C20706F696E74206514
:105100007374696D6174656420726164697573207C
:10511000746F6F20736D616C6C3A20000050617287
:105120007469616C20706F696E74206469616D656B
:1051300074657220746F6F20736D616C6C3A20001F
:10514000746F70007269676874006C6566740072D1
:1051500069676874006C65667400746F70006661DE
:10516000696C6564202D206E6F7420666F756E64A7
:105170000A007269676874006C65667400002C2010
:1051800000496E697469616C20706F736974696F2E
:105190006E3A2000417420592D340041742059305A
:1051A00000496E76616C69642062656420636F7289
:1051B00072656374696F6E206D61747269782E20F8
:1051C000526573657474696E6720746F20696465D5
:1051D0006E746974792E00496E76616C6964206220
:1051E000656420636F7272656374696F6E206D61B0
:1051F000747269782E20582F592061786573206168
:105200007265206661722066726F6D206265696EDC
:10521000672070657270656E646963756C61722E6B
:1052200000496E76616C69642062656420636F7208
:1052300072656374696F6E206D61747269782E2077
:105240005368696674206F7574206F662072616E92
:1052500067652E00496E76616C6964206265642022
:10526000636F7272656374696F6E206D61747269C9
:10527000782E204C656E677468206F6620746865B0
:10528000205820766563746F72206F7574206F6686
:105290002072616E67652E00496E76616C696420CC
:1052A00062656420636F7272656374696F6E206DEE
:1052B00061747269782E204C656E677468206F6621
:1052C00020746865205820766563746F72206F754E
:1052D00074206F662072616E67652E0000292C2095
:1052E0006572726F723A20002C2000293B20746195
:1052F000726765743A2028002C2000293B206D65D8
:105300006173757265642D636F7272656374656431
:105310003A2028002C20006D656173757265643A2F
:10532000202800706F696E742023004469666665EA
:1053300072656E636520616674657220636F727258
:10534000656374696F6E3A2000002C200063656EFF
:105350007465722C2061646A75737465643A200008
:10536000002C20005920766563746F722C206164D4
:105370006A75737465643A2000002C20005820760A
:105380006563746F722C2061646A75737465643A26
:10539000200056657279206C6974746C6520736B9B
:1053A00065772064657465637465642E204F72743C
:1053B000686F676F6E616C697A696E672074686583
:1053C00020617865732E0000292C206572726F723F
:1053D0003A20002C2000293B207461726765743AE2
:1053E0002028002C2000293B20636F7272656374B3
:1053F00065643A2028002C2000206D656173757269
:1054000065643A202800706F696E7420230045722D
:10541000726F7220616674657220636F7272656369
:1054200074696F6E3A2000002C200063656E74650D
:1054300072206E65772C20696E7665727465643AA9
:105440002000002C20005920766563746F72206E56
:1054500065772C20696E7665727465643A20000069
:105460002C20005820766563746F72206E65772C4F
:1054700020696E7665727465643A2000002C200005
:10548000636F7272656374696F6E20616E676C65BD
:10549000733A2000002C2000636F7272656374659C
:1054A0006420616E676C65733A2000002C200063F5
:1054B0006F7272656374656420782F793A200000FA
:1054C0002C20002C20002C2000636F727265637406
:1054D000696F6E20766563746F723A200069746537
:1054E000726174696F6E3A200000292C2065727217
:1054F0006F723A20002C2000293B2074617267658E
:10550000743A2028002C2000206D65617375726547
:10551000643A202800706F696E74202300002C20EC
:105520000063656E7465722C20696E697469616CC4
:105530003A2000002C20005920766563746F722C8D
:1055400020696E697469616C3A2000002C20005853
:1055500020766563746F722C20696E697469616C62
:105560003A20000000E442FCFFFFBF000057430068
:1055700000C0420000E442000042430000404100FD
:1055800000C04200004041FCFFFFBF0000E442FCBD
:10559000FFFFBF00005743FCFFFFBF000057430061
:1055A00000C0420000E4420000C042000040410050
:1055B00000C04200004041000042430000E44200BD
:1055C000004243000057430000424345303A200068
:1055D0005A3A2000593A2000583A20004D53312CB5
:1055E0004D53322050696E730A005A00205A3A0017
:1055F000590020593A00580020583A0024F4D43079
:1056000050C38E20C2A24017828B7011127A910D66
:10561000816CD90AA861E108C75866076151430641
:105620001E4B5D05C145A7041A411104093D9803AD
:10563000713931034036DB0265339102D4305402B4
:10564000802E1D02632CEE01752AC501B028A00131
:10565000102781018F2564012B244B01E0223401A6
:10566000AC211F018D200D01801FFC00841EED0068
:10567000971DDF00B81CD200E61BC600201BBC0033
:10568000641AB200B219A8000A19A0006A18990099
:10569000D117910040178B00B516840031167E009B
:1056A000B31579003A157300C7146F0058146A00D7
:1056B000EE1366008813630025135E00C7125B00BB
:1056C0006C12570015125400C111510070114F0097
:1056D00021114B00D61049008D10470046104400A0
:1056E00002104200C00F4000800F3E00420F3C00FD
:1056F000060F3B00CB0E3800930E37005C0E3500D2
:10570000270E3400F30D3200C10D3100900D300032
:10571000600D2E00320D2D00050D2C00D90C2B0034
:10572000AE0C2900850C29005C0C2700350C2700E5
:105730000E0C2600E80B2400C40B2400A00B230051
:105740007D0B23005A0B2100390B2100180B200080
:10575000F80A1F00D90A1E00BB0A1E009D0A1D0080
:10576000800A1D00630A1C00470A1B002C0A1B004C
:10577000110A1A00F7091A00DD091900C4091900F5
:10578000AB091900920917007B091800630917007B
:105790004C09160036091600200916000A091500E2
:1057A000F5081500E0081400CC081400B80814002F
:1057B000A4081400900813007D0812006B08130061
:1057C000580812004608120034081100230811007E
:1057D0001208110001081100F0071000E007100086
:1057E000D0071000C0071000B0070F00A10710007D
:1057F00091070E0083070F0074070F0065070E0066
:1058000057070E0049070E003B070D002E070E003C
:1058100020070D0013070D0006070D00F9060C0008
:10582000ED060D00E0060C00D4060C00C8060C00C6
:10583000BC060C00B0060C00A4060B0099060C0078
:105840008D060B0082060B0077060B006C060B0022
:1058500061060A0057060B004C060A0042060A00C1
:1058600038060A002E060A0024060A001A060A0054
:105870001006090007060A00FD050900F4050900E5
:10588000EB050900E2050900D9050900D00509006A
:10589000C7050900BE050900B5050800AD050800EB
:1058A000A50509009C050800940508008C05080062
:1058B000840508007C050800740508006C050700D5
:1058C000650508005D050700560508004E05070040
:1058D00047050700400508003805070031050700A7
:1058E0002A050700230507001C050600160507000A
:1058F0000F0507000805060002050700FB04060067
:10590000F5040700EE040600E8040600E2040700C0
:10591000DB040600D5040600CF040600C904060017
:10592000C3040600BD040600B7040600B104050068
:10593000AC040600A6040600A00405009B040600B3
:1059400095040500900406008A04050085040500FE
:10595000800406007A040500750405007004050043
:105960006B04050066040500610405005C04050085
:1059700057040500520405004D04050048040500C5
:10598000430405003E0404003A0405003504050004
:10599000300404002C04050027040400230405003F
:1059A0001E0404001A040400160405001104040077
:1059B0000D040400090405000404040000040400AC
:1059C000FC030400F8030400F4030400F0030400E3
:1059D000EC030400E8030400E4030400E003040013
:1059E000DC030400D8030400D4030400D003040043
:1059F000CC030400C8030300C503030024F404D946
:105A0000201BC40C5C0E9804C4095F026507710179
:105A1000F405F900FB04B30048048700C1036900E2
:105A20005803550003034500BE023A0084023100CA
:105A300053022A002902250004022000E4011C0070
:105A4000C8011900AF011700980114008401130068
:105A5000710110006101100051010E0043010D00A1
:105A600036010B002B010B0020010B001501090072
:105A70000C01090003010800FB000800F300080006
:105A8000EB000700E4000600DE000600D800060078
:105A9000D2000600CC000500C7000500C2000500CA
:105AA000BD000400B9000400B5000400B10004000A
:105AB000AD000400A9000400A5000300A20003003B
:105AC0009F0004009B000300980003009500020063
:105AD00093000300900003008D0002008B00030080
